:020000040000FA
:060000000A128A11FC2F18
:100012000310720D730DF800780883120313A50004
:100022002508031D152816281F280030F30000306C
:10003200F2000030F1000030F000C6280310760D07
:10004200770DF8007808A4002408031D29282A281F
:100052002B281628F217FF30F005FF30F105FF308C
:10006200F2050030F305F617FF30F405FF30F50511
:10007200FF30F6050030F7050030A3000030A20083
:100082000030A1000030A0007F30A502A03024077C
:10009200F8007808A5022030F8007808A4000130A2
:1000A200F8000310A00DA10DA20DA30DF80B52280C
:1000B20077087302031D672876087202031D6728FA
:1000C20075087102031D672874087002031C6A28F0
:1000D2006B287A287408F0027508031C750FF10268
:1000E2007608031C760FF2027708031C770FF302DF
:1000F20020140130F8000310F00DF10DF20DF30D94
:10010200F80B7C280130A402031D88288928502876
:10011200A51F8C288D28A7282508803A9F3E031802
:10012200932894289528162801300310A30CA20CBA
:10013200A10CA00CFF3E031D96280130F8007808A0
:10014200A507031DA528A6289528BE28203025022C
:10015200031CAC28AD28B92816280130F80003107A
:10016200A00DA10DA20DA30DF80BB0280130A50220
:100172002508031DBD28BE28AE282308F300220847
:10018200F2002108F1002008F0000800FF30831679
:1001920003138500860187018316031788018814DB
:1001A200831603139F171F129F12831203131F1428
:1001B2001F08C33904389F000A168A1515250A122A
:1001C2008A110A168A152A240A128A11F001F00AE3
:1001D20001300A168A154D240A128A1191300A1228
:1001E2008A11C3210A128A11831203139F14FF2852
:1001F2001E0883160313CB001E08CA0083129F1821
:1002020003290429F928033083120313EF009730DE
:10021200EE00EE0B0A29EF0B0A2944308312031376
:10022200C1007F30C000C030BF000030BE0040308F
:10023200A700A030A6000030A5000030A40083165D
:1002420003134A08F0004B08F100F201F3010030F9
:100252000A168A11D6200A128A117308831203130E
:10026200AB007208AA007108A9007008A8000A125F
:100272008A159F240A128A11831203132708C500C4
:100282002608C4002508C3002408C2000A168A11E1
:1002920090210A128A118312031341088316031351
:1002A200C90083120313400883160313C800831284
:1002B20003133F0883160313C700831203133E0878
:1002C20083160313C600423083120313A700C830FB
:1002D200A6000030A5000030A400831603134908CD
:1002E20083120313AB00831603134808831203130C
:1002F200AA0083160313470883120313A900831667
:100302000313460883120313A8000A128A159F24B6
:100312000A128A1183120313270883160313C500D6
:1003220083120313260883160313C40083120313D4
:10033200250883160313C3008312031324088316AC
:100342000313C200023083120313EE006E08F000A2
:1003520005300A168A154D240A128A1183160313D0
:100362004508A3004408A2004308A1004208A000D7
:100372009E300A128A11C3210A128A11F5280A1222
:100382008A11002883160313B000A030A4002408A9
:10039200AD00E72F253041060319D029D129D829EC
:1003A20041080A168A15B6240A128A11E72FAE01ED
:1003B200AF01300884000A168A1100200A128A113D
:1003C2002E3A031DE529E6292B2A2F170130A40016
:1003D2002408B007BB01BC011A2A0A30F000003021
:1003E200F100831603133C08F3003B08F2000A16DF
:1003F2008A1591240A128A11710883160313BC000C
:100402007008BB00300884000A168A1100200A1204
:100412008A11D03EA400FF3003180030A500240842
:10042200BB070318BC0A2508BC070130A400240836
:10043200B007300884000A168A1100200A128A11B5
:100442000A168A153B240A128A110318292A2A2A13
:10045200EE29312ABB01BC012F16312A2F154D2A54
:10046200013083160313B007FF30300784000A16E9
:100472008A1100200A128A11C100A400A5012508D0
:10048200003A0319452AE72F2408003A0319FB2FE3
:10049200663A03192F2AE72F00302E05A4000730F1
:1004A2002F05A500240825040319582A592AA42F28
:1004B2002F1E5C2A5D2A612A0630BB000030BC0078
:1004C2002D08840083130008BD00840A0008BE00C2
:1004D200840A0008BF00840A0008C0000430A40097
:1004E2002408AD074008F3003F08F2003E08F1007F
:1004F2003D08F0000030F7000030F6000030F50053
:100502000030F4000A168A155E270A128A110318AF
:100512008B2A8C2AA92A831603134008F3003F086A
:10052200F2003E08F1003D08F0000A168A151F2469
:100532000A128A11730883160313C0007208BF00DF
:100542007108BE007008BD000330AE040030AF0475
:1005520083160313B501B6014008F3003F08F20009
:100562003E08F1003D08F0000030F7000030F600D0
:100572000030F5000030F4000A168A1594250A129C
:100582008A110318C52AC62AB62B03108316031331
:100592003F0D400D823EB500FF3003180030B6001B
:1005A200FF30B5070318B60AFF30B6070330F00074
:1005B2000030F1003608F3003508F2000A168A15F9
:1005C20091240A128A11710883160313B600700867
:1005D200B5000A30F7000030F8003608FA00350896
:1005E200F9000A168A15F5260A128A117808831666
:1005F2000313B6007708B500B61F002B012B072B9B
:10060200FF30B5070318B60AFF30B6073503FF3AC5
:100612000A128A1540210A128A1183120313410811
:1006220083160313BA0083120313400883160313BD
:10063200B900831203133F0883160313B800831211
:1006420003133E0883160313B700400883120313F3
:10065200A700831603133F0883120313A600831611
:1006620003133E0883120313A500831603133D08E8
:1006720083120313A400831603133A08831203138D
:10068200AB0083160313390883120313AA008316DF
:100692000313380883120313A900831603133708C0
:1006A20083120313A8000A128A159F240A128A11C0
:1006B20083120313270883160313BA00831203134A
:1006C200260883160313B900831203132508831621
:1006D2000313B80083120313240883160313B7000D
:1006E2003A08F3003908F2003808F1003708F00040
:1006F2003F30F7008030F6000030F5000030F400A3
:100702000A168A155E270A128A110318892B8A2B68
:10071200932BFF3083160313B5070318B60AFF3075
:10072200B607B62B831603133A08F3003908F20012
:100732003808F1003708F0004130F7002030F600A9
:100742000030F5000030F4000A168A155E270A12FE
:100752008A11031CAD2BAE2BB62B0130831603136B
:10076200B5070318B60A0030B607831603133C0810
:10077200803AFF0080307F02031DC12B0D303B0207
:100782000318C42BC52B0C2C831603133B080A1623
:100792008A116D230A128A11831203134108D500AC
:1007A2004008D4003F08D3003E08D200831603134A
:1007B200400883120313D900831603133F088312E0
:1007C2000313D800831603133E0883120313D700C2
:1007D200831603133D0883120313D6000A168A11E7
:1007E20078250A128A1183120313550883160313FC
:1007F200C00083120313540883160313BF0083122D
:100802000313530883160313BE0083120313520803
:1008120083160313BD00831603133608803AFF00C4
:1008220080307F02031D172C0A30350203181A2C60
:100832001B2C6C2C831603134008F3003F08F200B4
:100842003E08F1003D08F0000030F7000030F600ED
:100852000030F5000030F4000A168A1594250A12B9
:100862008A110318352C362CDE2C8316031340080C
:1008720083120313D400831603133F088312031356
:10088200D300831603133E0883120313D200831688
:1008920003133D0883120313D1000A128A1507209D
:1008A2000A128A1183120313540853045204510486
:1008B200031D5C2C5D2CDE2C831603133608803A54
:1008C200FF0080307F02031D682C02303502031CBA
:1008D2006B2C6C2CDE2C831603133A08F3003908B8
:1008E200F2003808F1003708F0004030F700893094
:1008F200F6007030F5005F30F4000A168A155E27A4
:100902000A128A110318862C872C902CF730831632
:100912000313B5070318B60AFF30B607982CF83050
:1009220083160313B5070318B60AFF30B607350856
:100932000A128A1540210A128A11831203134108EE
:1009420083160313BA00831203134008831603139A
:10095200B900831203133F0883160313B8008312EE
:1009620003133E0883160313B7004008F3003F0841
:10097200F2003E08F1003D08F0003A08F70039089D
:10098200F6003808F5003708F4000A128A11092027
:100992000A128A11730883160313B4007208B30093
:1009A2007108B2007008B1000030C0000030BF0012
:1009B2000030BE000030BD00622D831603134008D4
:1009C20083120313D400831603133F088312031305
:1009D200D300831603133E0883120313D200831637
:1009E20003133D0883120313D1000A128A1507204C
:1009F2000A128A1183120313540883160313B400D4
:100A020083120313530883160313B30083120313D1
:100A1200520883160313B20083120313510883167C
:100A22000313B1003408F3003308F2003208F10076
:100A32003108F00000300A168A11D6200A128A11F3
:100A4200730883120313E9007208E8007108E700D3
:100A52007008E60083160313400883120313ED00A7
:100A6200831603133F0883120313EC008316031348
:100A72003E0883120313EB00831603133D0883120F
:100A82000313EA000A168A156D240A128A118312C8
:100A92000313690883160313C00083120313680843
:100AA20083160313BF00831203136708831603130D
:100AB200BE0083120313660883160313BD00B5013B
:100AC200B601C101C10A4108A40001300310A40DFE
:100AD200FF3E031D672D0310240D693E84000A1694
:100AE2008A1100200A128A11A5000A168A11002012
:100AF2000A128A11A6000A168A1100200A128A1105
:100B0200A7000A168A1100200A128A11A8002808D2
:100B12003402031D962D27083302031D962D260845
:100B22003202031D962D250831020318992D9A2DA4
:100B32009B2DA52D0130A4002408C1070A304106CF
:100B4200031DA42DA52D642D03302E05A400003015
:100B52002F05A500240825040319B02DB12D192E47
:100B62002D300A168A15B6240A128A11192E410846
:100B7200A40001300310A40DFF3E031DBB2D031082
:100B8200240D693E84000A168A1100200A128A1175
:100B9200F0000A168A1100200A128A11F1000A16C0
:100BA2008A1100200A128A11F2000A168A11002004
:100BB2000A128A11F3003408F7003308F6003208EB
:100BC200F5003108F4000A168A158F260A128A11D6
:100BD200730883160313BA007208B9007108B800CB
:100BE2007008B7000030F3000030F2000030F1006E
:100BF2000A30F0003A08F7003908F6003808F50024
:100C02003708F4000A168A15E2250A128A117308B7
:100C120083160313BA007208B9007108B80070088D
:100C2200B7003708303E0A168A15B6240A128A110E
:100C3200013083160313C102410A031D212E222E05
:100C4200B82D312E30300A168A15B6240A128A11AE
:100C5200FF3083160313B5070318B60AFF30B60731
:100C62003608803AFF0080307F02031D3A2E0130A1
:100C7200350203183D2E3E2E232E831603133C0805
:100C8200803AFF0080307F02031D492E09303B026B
:100C9200031C4C2E4D2E542E083083160313A40031
:100CA2002408C1005A2E831603133B08A40024080B
:100CB200C1004108A400A5012408BB022508031CA9
:100CC200BC03BC0241080319672E682E6E2E2E301B
:100CD2000A168A15B6240A128A11831603134108CA
:100CE2000A128A1540210A128A118312031341083B
:100CF20083160313AC0083120313400883160313F5
:100D0200AB00831203133F0883160313AA00831256
:100D120003133E0883160313A9002C08831203133E
:100D2200AB00831603132B0883120313AA00831646
:100D320003132A0883120313A90083160313290835
:100D420083120313A80083160313400883120313AC
:100D5200A700831603133F0883120313A60083160A
:100D620003133E0883120313A500831603133D08E1
:100D720083120313A4000A128A159F240A128A11ED
:100D8200831203132708D4002608D3002508D200B3
:100D92002408D1000A128A1507200A128A11831226
:100DA2000313540883160313B40083120313530866
:100DB20083160313B300831203135208831603131B
:100DC200B20083120313510883160313B100872F55
:100DD2004108A40001300310A40DFF3E031DEC2EB8
:100DE2000310240D693E84000A168A1100200A129B
:100DF2008A11F0000A168A1100200A128A11F100E3
:100E02000A168A1100200A128A11F2000A168A11A1
:100E120000200A128A11F3003408F7003308F600A2
:100E22003208F5003108F4000A168A158F260A12D4
:100E32008A11730883160313BA007208B900710885
:100E4200B8007008B7000030F3000030F200003044
:100E5200F1000A30F0003A08F7003908F6003808C5
:100E6200F5003708F4000A168A15E2250A128A11DB
:100E7200730883160313BA007208B9007108B80028
:100E82007008B7003708303E0A168A15B6240A12CF
:100E92008A11831603134108A40001300310A40D24
:100EA200FF3E031D4F2F0310240D693E84000A16D6
:100EB2008A1100200A128A11F0000A168A110020F3
:100EC2000A128A11F1000A168A1100200A128A11E6
:100ED200F2000A168A1100200A128A11F30034085D
:100EE200F7003308F6003208F5003108F4000A165C
:100EF2008A15E2250A128A11730883160313B400B5
:100F02007208B3007108B2007008B1000130C1026A
:100F1200410A031D8D2F8E2FE92E9D2F30300A1688
:100F22008A15B6240A128A11FF3083160313BB07EF
:100F32000318BC0AFF30BC073B083C04031DA22F68
:100F4200A32F8F2FE72F3B083C04031DA92FAA2FA5
:100F5200B82F3408330432043104031DB12FB22FE9
:100F6200B82F0130BB070318BC0A0030BC073C088D
:100F7200803A803C031DBF2F3B0841020318C22F59
:100F8200C32FC42FD32F831603133C08803AA40027
:100F920080302402031DCF2F41083B020318D22FB9
:100FA200D32FD32F0330831603132E05A400003052
:100FB2002F05A500240825040319E02FE12FE72FB0
:100FC2002D300A168A15B6240A128A1101308316A8
:100FD2000313B007FF30300784000A168A1100207D
:100FE2000A128A11A4002408C1004108031DFA2F25
:0E0FF200FB2FCB29080083010A128A11C728A1
:10100E00031083120313530D540DD5005508DB0046
:10101E005B08031D132814281D280030D40000304F
:10102E00D3000030D2000030D10082285108D50004
:10103E005208D6005308D7005408D8001F300310AA
:10104E00D80CD70CD60CD50CFF3E031D2628550800
:10105E00D9005908DA00D317FF30D105FF30D20579
:10106E00FF30D3050030D4059630DB02DB1F40285D
:10107E0041285B285B08803A973E0318472848288A
:10108E004928142801300310D40CD30CD20CD10CE7
:10109E00FF3E031D4A280130D5005508DB07031D0E
:1010AE0059285A284928722820305B02031C6028D0
:1010BE0061286D2814280130D5000310D10DD20DF2
:1010CE00D30DD40DD50B64280130DB025B08031D54
:1010DE007128722862285A080319762877288228E0
:1010EE00D109D209D309D409D10A0319D20A031995
:1010FE00D30A0319D40A08007008F8007108F90021
:10110E007208FA000310790D7A0DFB007B0883122A
:10111E000313A5002508031D952896289F28003047
:10112E00F3000030F2000030F1000030F0003F29F3
:10113E007408F8007508F9007608FA000310790DA6
:10114E007A0DFB007B08A4002408031DAF28B028ED
:10115E00B1289628F117FF30F005FF30F105003069
:10116E00F205F517FF30F405FF30F5050030F605F2
:10117E000030A3000030A2000030A1000030A0001B
:10118E007F30A50298302407F8007808A5021830A1
:10119E00F8007808A4000130F8000310A00DA10D8E
:1011AE00A20DA30DF80BD42876087202031DE528B4
:1011BE0075087102031DE52874087002031CE828E7
:1011CE00E928F4287408F0027508031C750FF10263
:1011DE007608031C760AF202201401300310F00D7B
:1011EE00F10DF20DFF3E031DF5280130A402031D83
:1011FE0001290229D228A51F0529062920292508FB
:10120E00803A973E03180C290D290E299628013095
:10121E000310A30CA20CA10CA00CFF3E031D0F2962
:10122E000130F8007808A507031D1E291F290E2975
:10123E00372918302502031C2529262932299628FC
:10124E000130F8000310A00DA10DA20DA30DF80B97
:10125E0029290130A5022508031D362937292729FA
:10126E002308F3002208F2002108F1002008F00004
:10127E00080083120313D000D01F46294729F42AF1
:10128E00D009D00A5008803A123E031C4F2950292B
:10129E00382A0A30F7000030F8005008F200F30147
:1012AE00F21BF3036430F0000030F1000A168A15C9
:1012BE0036260A128A157108FA007008F9000A1605
:1012CE008A15F5260A128A15770883120313C200AF
:1012DE0001300310C20DFF3E031D70290310420D95
:1012EE00593E84000A168A1100200A128A15C3007C
:1012FE000A168A1100200A128A15C4000A168A11CB
:10130E0000200A128A15C5000A168A1100200A1238
:10131E008A15C6004608A7004508A6004408A50081
:10132E004308A4006430F7000030F8005008F900BC
:10133E00FA01F91BFA030A168A15F5260A128A15FE
:10134E00770883120313C70001300310C70DFF3E49
:10135E00031DAC290310470D7D3E84000A168A1129
:10136E0000200A128A15C8000A168A1100200A12D5
:10137E008A15C9000A168A1100200A128A15CA0097
:10138E000A168A1100200A128A15CB004B08AB00F0
:10139E004A08AA004908A9004808A8000A128A1596
:1013AE009F240A128A15831203132708CF002608DA
:1013BE00CE002508CD002408CC000A30F000003005
:1013CE00F1005008F200F301F21BF3030A168A151E
:1013DE0036260A128A15700883120313C2000130D2
:1013EE000310C20DFF3E031DF7290310420D353EBB
:1013FE0084000A168A1100200A128A15C3000A16E2
:10140E008A1100200A128A15C4000A168A110020B9
:10141E000A128A15C5000A168A1100200A128A15A8
:10142E00C6004608A7004508A6004408A5004308C4
:10143E00A4004F08AB004E08AA004D08A9004C08A6
:10144E00A8000A128A159F240A128A158312031302
:10145E002708C1002608C0002508BF002408BE00CA
:10146E009E2C5008803A753E031C3E2A3F2AC72AFE
:10147E000A30F0000030F1005008F200F301F21BC8
:10148E00F3030A168A1536260A128A157008831275
:10149E000313C20001300310C20DFF3E031D522A7A
:1014AE000310420D353E84000A168A1100200A12DE
:1014BE008A15C3000A168A1100200A128A15C40062
:1014CE000A168A1100200A128A15C5000A168A11F8
:1014DE0000200A128A15C6004608A7004508A60075
:1014EE004408A5004308A4000A30F7000030F800B5
:1014FE005008F900FA01F91BFA030A168A15F526A7
:10150E000A128A15770883120313C70001300310DD
:10151E00C70DFF3E031D8E2A0310470D593E840052
:10152E000A168A1100200A128A15C8000A168A1194
:10153E0000200A128A15C9000A168A1100200A1202
:10154E008A15CA000A168A1100200A128A15CB00C3
:10155E004B08AB004A08AA004908A9004808A80091
:10156E000A128A159F240A128A158312031327085A
:10157E00C1002608C0002508BF002408BE009E2C0E
:10158E005008C20001300310C20DFF3E031DCA2ACF
:10159E000310420D353E84000A168A1100200A12ED
:1015AE008A15C3000A168A1100200A128A15C40071
:1015BE000A168A1100200A128A15C5000A168A1107
:1015CE0000200A128A15C6004608C1004508C00050
:1015DE004408BF004308BE009E2C5008803A123EBD
:1015EE00031CFA2AFB2AE32B0A30F7000030F8001E
:1015FE005008F200F301F21BF3036430F0000030E8
:10160E00F1000A168A1536260A128A157108FA0092
:10161E007008F9000A168A15F5260A128A15770837
:10162E0083120313C20001300310C20DFF3E031DCF
:10163E001B2B0310420D253E84000A168A11002032
:10164E000A128A15C3000A168A1100200A128A1578
:10165E00C4000A168A1100200A128A15C5000A163D
:10166E008A1100200A128A15C6004608A7004508EE
:10167E00A6004408A5004308A4006430F70000301B
:10168E00F8005008F900FA01F91BFA030A168A1538
:10169E00F5260A128A15770883120313C700013044
:1016AE000310C70DFF3E031D572B0310470D493E78
:1016BE0084000A168A1100200A128A15C8000A161A
:1016CE008A1100200A128A15C9000A168A110020F2
:1016DE000A128A15CA000A168A1100200A128A15E1
:1016EE00CB004B08AB004A08AA004908A9004808DD
:1016FE00A8000A128A159F240A128A158312031350
:10170E002708CF002608CE002508CD002408CC00DF
:10171E000A30F0000030F1005008F200F301F21B25
:10172E00F3030A168A1536260A128A1570088312D2
:10173E000313C20001300310C20DFF3E031DA22B86
:10174E000310420D013E84000A168A1100200A126F
:10175E008A15C3000A168A1100200A128A15C400BF
:10176E000A168A1100200A128A15C5000A168A1155
:10177E0000200A128A15C6004608A7004508A600D2
:10178E004408A5004308A4004F08AB004E08AA0069
:10179E004D08A9004C08A8000A128A159F240A12A7
:1017AE008A15831203132708C1002608C0002508D6
:1017BE00BF002408BE009E2C5008803A753E031CC4
:1017CE00E92BEA2B722C0A30F0000030F1005008A1
:1017DE00F200F301F21BF3030A168A1536260A12DB
:1017EE008A15700883120313C20001300310C20D54
:1017FE00FF3E031DFD2B0310420D013E84000A1611
:10180E008A1100200A128A15C3000A168A110020B6
:10181E000A128A15C4000A168A1100200A128A15A5
:10182E00C5000A168A1100200A128A15C60046083B
:10183E00A7004508A6004408A5004308A4000A30E6
:10184E00F7000030F8005008F900FA01F91BFA030E
:10185E000A168A15F5260A128A15770883120313BB
:10186E00C70001300310C70DFF3E031D392C0310B6
:10187E00470D253E84000A168A1100200A128A1589
:10188E00C8000A168A1100200A128A15C9000A1603
:10189E008A1100200A128A15CA000A168A1100201F
:1018AE000A128A15CB004B08AB004A08AA00490859
:1018BE00A9004808A8000A128A159F240A128A1540
:1018CE00831203132708C1002608C0002508BF0095
:1018DE002408BE009E2C5008C20001300310C20D19
:1018EE00FF3E031D752C0310420D013E84000A16A7
:1018FE008A1100200A128A15C3000A168A110020C6
:10190E000A128A15C4000A168A1100200A128A15B4
:10191E00C5000A168A1100200A128A15C60046084A
:10192E00C1004508C0004408BF004308BE000800BF
:10193E008312031327088039AC002C08B100270846
:10194E00AC002C07AD002D08B700A61FAF2CB02C95
:10195E00B12C371437080319B52CB62CC52C370A01
:10196E00031DBA2CBB2CC32C0030A7000030A600E0
:10197E000030A5000030A400A617CD2C0030A70023
:10198E000030A6000030A5000030A4002B088039DE
:10199E00AC002C08B1062B08AC002C07AD002D08AE
:1019AE00B600AA1FDB2CDC2CDD2C361436080319EE
:1019BE00E12CE22CF12C360A031DE62CE72CEF2C41
:1019CE000030AB000030AA000030A9000030A800A3
:1019DE00AA17F92C0030AB000030AA000030A90085
:1019EE000030A80036080319FD2CFE2C032D3708F5
:1019FE00031D022D032D0C2D0030A7000030A60074
:101A0E000030A5000030A400FF2F2408AC002C08E5
:101A1E00F0002A080A168A11AF200A128A157108D8
:101A2E0083120313BD007008BC003C08AC00AD016E
:101A3E00AE01AF012F08B5002E08B4002D08B3007B
:101A4E002C08B2003D08AC00AD01AE01AF012F086D
:101A5E00BB002E08BA002D08B9002C08B8002508C6
:101A6E00AC002C08F00029080A168A11AF200A12C1
:101A7E008A15710883120313BD007008BC003C0860
:101A8E00AC00AD01AE01AF012C08B2072D08031159
:101A9E000318013E0319542DB3072E080311031822
:101AAE00013E03195B2DB4072F0803110318013EE5
:101ABE000319622DB5073D08AC00AD01AE01AF01B3
:101ACE002C08B8072D0803110318013E0319702DB9
:101ADE00B9072E0803110318013E0319772DBA0713
:101AEE002F0803110318013E03197E2DBB0726088C
:101AFE00AC002C08F00028080A168A11AF200A1232
:101B0E008A15710883120313BD007008BC003C08CF
:101B1E00AC00AD01AE01AF012C08B2072D080311C8
:101B2E000318013E03199C2DB3072E080311031849
:101B3E00013E0319A32DB4072F0803110318013E0C
:101B4E000319AA2DB5073D08AC00AD01AE01AF01DA
:101B5E002C08B8072D0803110318013E0319B82DE0
:101B6E00B9072E0803110318013E0319BF2DBA073A
:101B7E002F0803110318013E0319C62DBB070830A9
:101B8E00AC000310B20DB30DB40DB50DAC0BC82DDA
:101B9E002508AC002C08F00028080A168A11AF2080
:101BAE000A128A15710883120313BD007008BC0057
:101BBE003C08AC003D08AD00AE01AF012C08B207E9
:101BCE002D0803110318013E0319EE2DB3072E083D
:101BDE0003110318013E0319F52DB4072F08031145
:101BEE000318013E0319FC2DB5072408AC002C0880
:101BFE00F00029080A168A11AF200A128A157108F8
:101C0E0083120313BD007008BC003C08AC003D08F5
:101C1E00AD00AE01AF012C08B2072D080311031859
:101C2E00013E03191B2EB3072E0803110318013EA4
:101C3E000319222EB4072F0803110318013E0319AE
:101C4E00292EB5070830AC000310B20DB30DB40D3C
:101C5E00B50DAC0B2B2E2408AC002C08F000280878
:101C6E000A168A11AF200A128A15710883120313FD
:101C7E00BD007008BC003C08AC003D08AD00AE01D4
:101C8E00AF012C08B2072D0803110318013E0319EA
:101C9E00512EB3072E0803110318013E0319582EB7
:101CAE00B4072F0803110318013E03195F2EB50761
:101CBE002508AC002C08F0002A080A168A11AF205D
:101CCE000A128A15710883120313BD007008BC0036
:101CDE003C08AC003D08AD00AE01AF012C08B807C2
:101CEE002D0803110318013E03197E2EB9072E0885
:101CFE0003110318013E0319852EBA072F0803118D
:101D0E000318013E03198C2EBB072608AC002C08C5
:101D1E00F00029080A168A11AF200A128A157108D6
:101D2E0083120313BD007008BC003C08AC003D08D4
:101D3E00AD00AE01AF012C08B8072D080311031832
:101D4E00013E0319AB2EB9072E0803110318013EED
:101D5E000319B22EBA072F0803110318013E0319F7
:101D6E00B92EBB072608AC002C08F0002A080A166C
:101D7E008A11AF200A128A15710883120313BD004F
:101D8E007008BC003C08AC003D08AD00AE01AF01D0
:101D9E0008300310AC0DAD0DAE0DAF0DFF3E031DA3
:101DAE00D02E2C08B8072D0803110318013E031975
:101DBE00E12EB9072E0803110318013E0319E82E70
:101DCE00BA072F0803110318013E0319EF2EBB07A4
:101DDE003208AC003308AD003408AE003508AF0051
:101DEE0018300310AF0CAE0CAD0CAC0CFF3E031D47
:101DFE00F82E2C08B8072D0803110318013E0319FD
:101E0E00092FB9072E0803110318013E0319102FCD
:101E1E00BA072F0803110318013E0319172FBB072A
:101E2E000830AC000310B20DB30DB40DB50DAC0BF4
:101E3E00192F37083607AC00AD01AD0D2C08823EC8
:101E4E00BC002D080318013EFF3EBD004B2F013094
:101E5E00AC000310B80DB90DBA0DBB0DAC0B302F85
:101E6E00B51F3A2F3B2F3C2F38140130AC00031016
:101E7E00B20DB30DB40DB50DAC0B3E2FFF30BC073C
:101E8E000318BD0AFF30BD07BA1F4E2F4F2F2E2F3E
:101E9E00B601B51F532F542F702FFF303205AC00F3
:101EAE00FF303305AD00FF303405AE007F30350511
:101EBE00AF002F082E042D042C040319672F682F52
:101ECE006B2FB601B60A702F381C6E2F6F2F702F26
:101EDE00682F36080319742F752FA62F0130B807F7
:101EEE00003003180130B907003003180130BA076B
:101EFE00003003180130BB073B1C862F872FA62FFF
:101F0E003808AC003908AD003A08AE003B08AF0007
:101F1E000130B0002F0DAF0CAE0CAD0CAC0CB00BF5
:101F2E00912F2F08BB002E08BA002D08B9002C08DF
:101F3E00B8000130BC070318BD0A0030BD073D08CC
:101F4E00803AFF0080307F02031DAF2FFF303C022E
:101F5E00031CB22FB32FBE2F7F3083120313BB008F
:101F6E008030BA000030B9000030B800F32F831271
:101F7E0003133D08803AFF0080307F02031DC92FF6
:101F8E0001303C020318CC2FCD2FD92F00308312F5
:101F9E000313BB000030BA000030B9000030B800A7
:101FAE00B101F32F831203133C08AC002C08B700C9
:101FBE00FF30B805FF30B9057F30BA050030BB05DC
:101FCE00371CEA2FEB2FEC2FBA173708AC00031093
:101FDE002C0CAD002D08BB003108AC002C08BB0446
:101FEE003B08A7003A08A6003908A5003808A40047
:101FFE00080010308A000408840A82070034003476
:10200E00003480343F340034003420344134003402
:10201E000034C8344234003400347A34443400344A
:10202E0040341C34463400345034C3344734003406
:10203E002434743449348034963418344B34203478
:10204E00BC34BE344C3428346B346E344E34F934D4
:10205E00023415345034EC347834AD346034CA3430
:10206E00F234493471340034003480343F34CD348A
:10207E00CC34CC343D340A34D73423343C346F342E
:10208E00123483343A341734B734D1343834AC3450
:10209E00C53427343734BD3437348634353495342B
:1020AE00BF34D63433347734CC342B3432345F34BB
:1020BE00703489343034FF34E634DB342E34083453
:1020CE00E5343C341E3460344234A2340D340134D1
:1020DE000034003400340A340034003400346434E4
:1020EE00003400340034E834033400340034103447
:1020FE00273400340034A0348634013400344034A4
:10210E0042340F3400348034963498340034003422
:10211E00E134F53405340034CA349A343B34543443
:10212E0065346D347034653472346134743475349E
:10213E00723461343A34003425342E3431346634FA
:02214E0000345B
:10215E00F800F401F5017008F200F3017208F600C0
:10216E007308F700781CBC28BD28C3287608F4072E
:10217E000318F50A7708F50701300310F60DF70D71
:10218E00FF3E031DC4280310F80C7808031DD02849
:10219E00D128B9287508F1007408F0000800F8007D
:1021AE0078080319DB28DC28F028F31FDF28E02845
:1021BE00F0287009FA007109FB007209FC0073091E
:1021CE00FD00FA0A0319FB0A0319FC0A0319FD0A9A
:1021DE00F8287308FD007208FC007108FB007008F7
:1021EE00FA007308720471047004031DFF2800299D
:1021FE0009290030F3000030F2000030F100003009
:10220E00F0008F299630F4007408F9001B29013074
:10221E00F4007408F90701300310FD0CFC0CFB0CE4
:10222E00FA0CFF3E031D1329FE307D05031D2029E8
:10223E0021290E293D290130F4007408F9070130D7
:10224E00FA07003003180130FB0700300318013085
:10225E00FC07003003180130FD0701300310FD0CA0
:10226E00FC0CFB0CFA0CFF3E031D3529FF307D05DF
:10227E00031D4229432922294F290130F902013039
:10228E00F4000310FA0DFB0DFC0DFD0DF40B4829A7
:10229E00FC1B522953295929023079020318582957
:1022AE005929442979185C295D296529FF30FA05D9
:1022BE00FF30FB057F30FC05FF30FD050310F90CE8
:1022CE007908F400F501F601F70118300310F40D4A
:1022DE00F50DF60DF70DFF3E031D6D297408FA047A
:1022EE007508FB047608FC047708FD0478080319CA
:1022FE00812982298729F31F852986298729FD1798
:10230E007D08F3007C08F2007B08F1007A08F000EB
:10231E0008008312031345088039C6004608CF0013
:10232E004508C6004607C7004708D600C41FA029A7
:10233E00A129A229561456080319A629A729B72997
:10234E00560A031DAB29AC29B4290030C500003054
:10235E00C4000030C3000030C200C417C501BF293D
:10236E000030C5000030C4000030C3000030C20091
:10237E0041088039C6004608CF064108C600460708
:10238E00C7004708D700C01FCD29CE29CF29571423
:10239E0057080319D329D429E429570A031DD8292C
:1023AE00D929E1290030C1000030C0000030BF0043
:1023BE000030BE00C017C101EC290030C100003052
:1023CE00C0000030BF000030BE00410840043F0492
:1023DE003E04031DF329F4290D2A0030C5000030F8
:1023EE00C4000030C3000030C2008030C4047F300F
:1023FE00C5044F08C6004608C5044508C100440878
:10240E00C0004308BF004208BE006C2B5608031DD7
:10241E00112A122A1B2A0030C1000030C0000030E1
:10242E00BF000030BE006C2B5608C600C70147081F
:10243E00C90057084602C800031CC90348087F3E5E
:10244E00D00049080318013E003ED1004508CE00D9
:10245E004408CD004308CC004208CB000030C50034
:10246E000030C4000030C3000030C2000030D50080
:10247E000030D4000030D3000030D200D701912AB2
:10248E00570803194B2A4C2A6C2A0130C600031038
:10249E00CB0DCC0DCD0DCE0DC60B4E2A0130C60088
:1024AE000310C20DC30DC40DC50DC60B572AD51F83
:1024BE00612A622A632A42140130C6000310D20D2B
:1024CE00D30DD40DD50DC60B652A41084E02031D42
:1024DE007A2A40084D02031D7A2A3F084C02031D3A
:1024EE007A2A3E084B02031C7D2A7E2A8D2A551716
:1024FE003E08CB023F08031C3F0FCC024008031CD2
:10250E00400FCD024108031C410FCE020130C60020
:10251E004608D7071A305702031C962A972A472ACD
:10252E004E084D044C044B0403199E2A9F2ABE2AC2
:10253E005214BE2A0130C6000310C20DC30DC40DC5
:10254E00C50DC60BA32AD51FAD2AAE2AAF2A42143B
:10255E000130C6000310D20DD30DD40DD50DC60B10
:10256E00B12AFF30D0070318D10AFF30D107C41F9C
:10257E00C12AC22AA12AD701D51FC62AC72AE32AF1
:10258E00FF305205C600FF305305C700FF3054051B
:10259E00C8007F305505C900490848044704460461
:1025AE000319DA2ADB2ADE2AD701D70AE32A421CCC
:1025BE00E12AE22AE32ADB2A57080319E72AE82A46
:1025CE00192B0130C207003003180130C307003049
:1025DE0003180130C407003003180130C507451C2D
:1025EE00F92AFA2A192B4208C6004308C7004408E4
:1025FE00C8004508C9000130CA00490DC90CC80CF5
:10260E00C70CC60CCA0B042B4908C5004808C400E9
:10261E004708C3004608C2000130D0070318D10A8C
:10262E000030D1075108803AFF0080307F02031D31
:10263E00222BFF305002031C252B262B342BFF3070
:10264E0083120313D0000030D1000030C5000030DB
:10265E00C4000030C3000030C200831203135108BF
:10266E00803AFF0080307F02031D3F2B0130500265
:10267E000318422B432B502B83120313D001D1018D
:10268E000030C5000030C4000030C3000030C2006E
:10269E00CF01831203135008C6004608D600561CFD
:1026AE00592B5A2B5C2BC417602B7F30C600460863
:1026BE00C4055608C6000310460CC7004708C500DF
:1026CE004F08C6004608C504042A080083120313E7
:1026DE00D1006E305102031C752B762B832C3F30AC
:1026EE00A7000030A6000030A5000030A400643022
:1026FE00F6000030F7005108C200C3014208F8008E
:10270E004308F9000A168A1550250A168A1176080A
:10271E0083120313C40001300310C40DFF3E031DCA
:10272E00932B0310440D7D3E84000A168A1100205F
:10273E000A168A11C5000A168A1100200A168A1175
:10274E00C6000A168A1100200A168A11C7000A1638
:10275E008A1100200A168A11C8004808AB004708E3
:10276E00AA004608A9004508A8000A128A159F2447
:10277E000A168A11831203132708D0002608CF00E9
:10278E002508CE002408CD000A30F6000030F700F0
:10279E005108C200C3014208F2004308F30064303E
:1027AE00F0000030F1000A168A15DB240A168A1191
:1027BE007108F9007008F8000A168A1550250A16D5
:1027CE008A11760883120313C40001300310C40D5E
:1027DE00FF3E031DED2B0310440D593E84000A16D7
:1027EE008A1100200A168A11C5000A168A110020C5
:1027FE000A168A11C6000A168A1100200A168A11B4
:10280E00C7000A168A1100200A168A11C800480845
:10281E00A7004708A6004608A5004508A4005008D2
:10282E00AB004F08AA004E08A9004D08A8000A12D6
:10283E008A159F240A168A11831203132708CC00C7
:10284E002608CB002508CA002408C9000A30F0006B
:10285E000030F1005108C200C3014208F2004308E3
:10286E00F3000A168A15DB240A168A1170088312E1
:10287E000313C40001300310C40DFF3E031D422C90
:10288E000310440D353E84000A168A1100200A16E4
:10289E008A11C5000A168A1100200A168A11C6006E
:1028AE000A168A1100200A168A11C7000A168A1102
:1028BE0000200A168A11C8004808A7004708A6007B
:1028CE004608A5004508A4004C08AB004B08AA001A
:1028DE004A08A9004908A8000A128A159F240A1658
:1028EE008A11831203132708C1002608C000250889
:1028FE00BF002408BE00772D0B305102031C882C1C
:10290E00892C342D3F30A7000030A6000030A500E2
:10291E000030A4000A30F6000030F7005108C20063
:10292E00C3014208F8004308F9000A168A1550251B
:10293E000A168A11760883120313C400013003109D
:10294E00C40DFF3E031DA62C0310440D593E8400FA
:10295E000A168A1100200A168A11C5000A168A1153
:10296E0000200A168A11C6000A168A1100200A16BD
:10297E008A11C7000A168A1100200A168A11C80089
:10298E004808AB004708AA004608A9004508A80059
:10299E000A128A159F240A168A1183120313270816
:1029AE00D0002608CF002508CE002408CD000A301E
:1029BE00F0000030F1005108C200C3014208F200DD
:1029CE004308F3000A168A15DB240A168A117008CA
:1029DE0083120313C40001300310C40DFF3E031D08
:1029EE00F32C0310440D353E84000A168A11002084
:1029FE000A168A11C5000A168A1100200A168A11B3
:102A0E00C6000A168A1100200A168A11C7000A1675
:102A1E008A1100200A168A11C8004808A700470824
:102A2E00A6004608A5004508A4005008AB004F08B4
:102A3E00AA004E08A9004D08A8000A128A159F2464
:102A4E000A168A11831203132708C1002608C00034
:102A5E002508BF002408BE00772D3F30A7000030A8
:102A6E00A6000030A5000030A4005108C2000130BD
:102A7E000310C20DFF3E031D3F2D0310420D353EC8
:102A8E0084000A168A1100200A168A11C3000A163B
:102A9E008A1100200A168A11C4000A168A11002013
:102AAE000A168A11C5000A168A1100200A168A1102
:102ABE00C6004608AB004508AA004408A900430812
:102ACE00A8000A128A159F240A168A11831203136C
:102ADE002708C1002608C0002508BF002408BE0034
:102AEE0008008312031355088039DA005A08E200F1
:102AFE005508DA005A07DB005B08E400D41F882D66
:102B0E00892D8A2D6414640803198E2D8F2D9F2D07
:102B1E00640A031D932D942D9C2D0030D50000309A
:102B2E00D4000030D3000030D200D417D501A72D29
:102B3E000030D5000030D4000030D3000030D20079
:102B4E0059088039DA005A08E3006308620603194F
:102B5E00B12DB22DB32D62175908DA005A07DB00DA
:102B6E005B08E300D81FBC2DBD2DBE2D631463087A
:102B7E000319C22DC32DD32D630A031DC72DC82DD6
:102B8E00D02D0030D9000030D8000030D7000030F2
:102B9E00D600D817D901DB2D0030D9000030D8006F
:102BAE000030D7000030D600640863020318E02D11
:102BBE00E12D252E621FE42DE52DE92D8030DA0062
:102BCE005A08E2066408DA005A08E5006308DA00DB
:102BDE005A08E4006508DA005A08E3005208DA00E1
:102BEE005A08E5005608DA005A08D2006508DA00DD
:102BFE005A08D6005308DA005A08E5005708DA00DA
:102C0E005A08D3006508DA005A08D7005408DA00CB
:102C1E005A08E5005808DA005A08D4006508DA00A8
:102C2E005A08D8005508DA005A08E5005908DA00A3
:102C3E005A08D5006508DA005A08D900E50163087C
:102C4E00DA00DB015B08DD0064085A02DC00031CBD
:102C5E00DD035D08803AFF0080307F02031D392EB0
:102C6E001A305C02031C3C2E3D2E7A2E8312031367
:102C7E005508540453045204031D462E482E0130A9
:102C8E00492E0030DA005A08E5000030D500003039
:102C9E00D4000030D3000030D2006308DA005A08A6
:102CAE00E400822E651C5C2E5D2E662E6508DA0011
:102CBE0003105A0C0138DB005B08E500682E031088
:102CCE00E50C521C6B2E6C2E6D2EE5170130DA00C2
:102CDE00550DD50CD40CD30CD20CDA0B6F2E013053
:102CEE00DA005A08E4078312031363086402031C14
:102CFE00812E822E592E621B852E862ED12E640891
:102D0E00031D8A2E8B2E942E0030D5000030D40059
:102D1E000030D3000030D200FF2F5608D2075708DC
:102D2E0003110318013E03199D2ED30758080311F2
:102D3E000318013E0319A42ED407590803110318D2
:102D4E00013E0319AB2ED507551CAE2EAF2E852F87
:102D5E00651CB22EB32EBC2E6508DA0003105A0C79
:102D6E000138DB005B08E500BE2E0310E50C521C9B
:102D7E00C12EC22EC32EE5170130DA00550DD50C2B
:102D8E00D40CD30CD20CDA0BC52E0130DA005A0853
:102D9E00E407852F5508803AFF005908803A7F02D4
:102DAE00031DE32E58085402031DE32E5708530249
:102DBE00031DE32E560852020318E62EE72E3F2F70
:102DCE00FF30DA00FF30DB00FF30DC00FF30DD00CB
:102DDE005608DE005708DF005808E0005908E100E9
:102DEE005208DE025308031C530FFE2EFF2EDF0285
:102DFE005408031C540F042F052FE0025508031C22
:102E0E00550F0A2F0B2FE1025E08DA075F08031831
:102E1E005F0F122F132FDB0760080318600F182F98
:102E2E00192FDC0761080318610ADD075D08D5005C
:102E3E005C08D4005B08D3005A08D2008030DA0058
:102E4E005A08E206E509E50A6508031D2F2F302F03
:102E5E004D2F0130D207003003180130D307003058
:102E6E0003180130D407003003180130D5074D2F59
:102E7E005608D2025708031C570FD3025808031CDA
:102E8E00580FD4025908031C590FD5025508540483
:102E9E0053045204031D542F552F812F6508031D13
:102EAE00592F5A2F812F0030D5000030D40000301A
:102EBE00D3000030D200FF2F0130DA000310D20D04
:102ECE00D30DD40DD50DDA0B652FE51F6F2F702F97
:102EDE00712F5214651C742F752F782F0314E50D66
:102EEE007A2F0310E50D640803197E2F7F2F812F93
:102EFE000130E402D41F842F852F632FE301E51FD9
:102F0E00892F8A2F982F65087F3903198F2F902FBD
:102F1E00932FE301E30A982F521C962F972F982F89
:102F2E00902F630803199C2F9D2FD12F0130D207AC
:102F3E00003003180130D307003003180130D407D6
:102F4E00003003180130D507551CAE2FAF2FD12FEF
:102F5E005208DA005308DB005408DC005508DD0087
:102F6E000130DE005D0DDD0CDC0CDB0CDA0CDE0B53
:102F7E00B92F5D08D5005C08D4005B08D3005A0851
:102F8E00D200640A0319CC2FCD2FD12F0130DA00D5
:102F9E005A08E407640A0319D52FD62FDB2F6408CD
:102FAE00031DDA2FDB2FE92F0030D5000030D400BF
:102FBE000030D3000030D2006408031DE72FE82F45
:102FCE00E92FE201641CEC2FED2FEF2FD417F32F16
:102FDE007F30DA005A08D4056408DA0003105A0C60
:102FEE00DB005B08D500E21FFD2FFE2FFF2FD5174C
:022FFE000800C9
:10383E0073087204710470040319262C272C292C8A
:10384E008030F306080083120313861386160130A8
:10385E00860086120D30F100FB30F000F00B352C97
:10386E00F10B352C3A2C0800F100F0013A307102C0
:10387E000318422C432C4B2C30307102031C482C65
:10388E00492C4B2CF001F00A700C0800F300700369
:10389E00031D522C532C592C73088038F1007108DB
:1038AE00F3005E2C7308C038F1007108F300831228
:1038BE00031386138616730887008612C730F1002D
:1038CE00682CF10B672C6B2C6C2C0800803083124B
:1038DE000313E9066D08D5006C08D4006B08D300FD
:1038EE006A08D2006908D9006808D8006708D700AE
:1038FE006608D6000A168A1178250A168A158312CA
:10390E0003135508E9005408E8005308E70052086D
:10391E00E6000800F401F501701C962C972C9D2CE6
:10392E007208F4070318F50A7308F507013003103F
:10393E00F20DF30DFF3E031D9E2C01300310F10C12
:10394E00F00CFF3E031DA52C70087104031DB02C56
:10395E00B12C932C7508F1007408F0000800F100EA
:10396E008312031386178616C730F000BE2CF00B99
:10397E00BD2CC12CC22CC83071020318C72CC82C08
:10398E00CD2C7108831203138700D22C7108383E98
:10399E008312031387008612C730F000D62CF00B6B
:1039AE00D52CD92CDA2C0800700871040319E02CE0
:1039BE00E12C102DF501F50AEF2C01300310F00D5E
:1039CE00F10DFF3E031DE52C0130F4007408F507E0
:1039DE00F11FF22CF32CE42C71087302031DF92C49
:1039EE0070087202031CFC2CFD2C032D7008F202D1
:1039FE007108031CF303F30201300310F10CF00CF9
:103A0E00FF3E031D042D0130F502031D0F2D102D59
:103A1E00F32C7308F1007208F000080083120313F0
:103A2E00861686130F3087008612C730F0001F2DC2
:103A3E00F00B1E2D222D232D8312031386168613B3
:103A4E00383087008612C730F0002D2DF00B2C2D4C
:103A5E00302D312D83120313861686130630870000
:103A6E008612C730F0003B2DF00B3A2D3E2D3F2D28
:103A7E0083120313861686130230870086120330D4
:103A8E00F1009730F000F00B4A2DF10B4A2D4F2D1F
:103A9E000800FB01FC01760877040319572D582DF9
:103AAE008F2DFD01FD0A662D01300310F60DF70D69
:103ABE00FF3E031D5C2D0130FA007A08FD07F71F4B
:103ACE00692D6A2D5B2D01300310FB0DFC0DFF3EA1
:103ADE00031D6B2D77087902031D772D760878026A
:103AEE00031C7A2D7B2D822D7608F8027708031C95
:103AFE00F903F9027B1401300310F70CF60CFF3EAC
:103B0E00031D832D0130FD02031D8E2D8F2D6A2D79
:103B1E007C08F7007B08F600080000307005F800FE
:103B2E0000307105F90080307205FA007F307305A0
:103B3E00FB007B087A0479047804031DA72DA82DB9
:103B4E00B02D0030F3000030F2000030F1000030F4
:103B5E00F00000307405F80000307505F900803073
:103B6E007605FA007F307705FB007B087A0479042E
:103B7E007804031DC32DC42DCC2D0030F70000306A
:103B8E00F6000030F5000030F40077087306031DD0
:103B9E00DA2D76087206031DDA2D75087106031DDF
:103BAE00DA2D740870060319DD2DDE2DE02D0310BD
:103BBE00E12D0314080073087204710470040319D4
:103BCE00E92DEA2D2D2EF901F90AFA2D0130F80012
:103BDE000310F00DF10DF20DF30DF80BEF2D01307A
:103BEE00F8007808F907F31FFD2DFE2DED2D730853
:103BFE007702031D0C2E72087602031D0C2E71081F
:103C0E007502031D0C2E70087402031C0F2E102E4D
:103C1E001E2E7008F4027108031C710FF502720853
:103C2E00031C720FF6027308031C730FF7020130A8
:103C3E000310F30CF20CF10CF00CFF3E031D1F2EC3
:103C4E000130F902031D2C2E2D2EFE2D7708F300C8
:103C5E007608F2007508F1007408F0000800F6010D
:103C6E00F31F3A2E3B2E422EF209F309F20A0319E4
:103C7E00F30AF601F60AF11F452E462E4B2EF009D9
:103C8E00F109F00A0319F10A700871040319502E94
:103C9E00512E802EF501F50A5F2E01300310F00D26
:103CAE00F10DFF3E031D552E0130F4007408F5078B
:103CBE00F11F622E632E542E71087302031D692E9E
:103CCE0070087202031C6C2E6D2E732E7008F20299
:103CDE007108031CF303F30201300310F10CF00C16
:103CEE00FF3E031D742E0130F502031D7F2E802E24
:103CFE00632E76080319842E852E8A2EF209F30977
:103D0E00F20A0319F30A7308F1007208F0000800B2
:103D1E000030FC000030FB000030FA000030F900EB
:103D2E00730872047104700403199E2E9F2EEC2EDC
:103D3E00FD01FD0AAF2E0130F8000310F00DF10D5C
:103D4E00F20DF30DF80BA42E0130F8007808FD07E4
:103D5E00F31FB22EB32EA22E0130F8000310F90D70
:103D6E00FA0DFB0DFC0DF80BB52E73087702031D33
:103D7E00CA2E72087602031DCA2E71087502031D23
:103D8E00CA2E70087402031CCD2ECE2EDD2E7008A6
:103D9E00F4027108031C710FF5027208031C720FF6
:103DAE00F6027308031C730FF70279140130031027
:103DBE00F30CF20CF10CF00CFF3E031DDE2E013065
:103DCE00FD02031DEB2EEC2EB32E7C08F3007B08B8
:103DDE00F2007A08F1007908F0000800831203134C
:103DEE00A101F81FFB2EFC2E032FF709F809F70A85
:103DFE000319F80AA101A10AFA1F062F072F102F87
:103E0E00F909FA09F90A0319FA0A0130FB007B08CD
:103E1E00A106A201A301770878040319172F182F02
:103E2E004F2FA001A00A262F01300310F70DF80D19
:103E3E00FF3E031D1C2F0130FB007B08A007F81F5F
:103E4E00292F2A2F1B2F01300310A20DA30DFF3E89
:103E5E00031D2B2F78087A02031D372F770879025E
:103E6E00031C3A2F3B2F422F7708F9027808031CC8
:103E7E00FA03FA02221401300310F80CF70CFF3E7D
:103E8E00031D432F0130A002031D4E2F4F2F2A2F4B
:103E9E0021080319532F542F592FA209A309A20A3F
:103EAE000319A30A2308F8002208F70008000030BF
:103EBE007005F80000307105F90080307205FA00C7
:103ECE007F307305FB007B087A0479047804031DA8
:103EDE00712F722F7A2F0030F3000030F200003075
:103EEE00F1000030F00000307405F8000030750568
:103EFE00F90080307605FA007F307705FB007B08ED
:103F0E007A0479047804031D8D2F8E2F962F00309E
:103F1E00F7000030F6000030F5000030F400F31F1B
:103F2E00992F9A2FBE2F0030F8000030F900003084
:103F3E00FA008030FB007008F8027108031C710F44
:103F4E00A92FAA2FF9027208031C720FAF2FB02FE0
:103F5E00FA027308031C730FB52FB62FFB027B08F2
:103F6E00F3007A08F2007908F1007808F000F71FE4
:103F7E00C12FC22FE62F0030F8000030F9000030BC
:103F8E00FA008030FB007408F8027508031C750FE8
:103F9E00D12FD22FF9027608031C760FD72FD82FE8
:103FAE00FA027708031C770FDD2FDE2FFB027B084A
:103FBE00F7007A08F6007908F5007808F4008030EA
:103FCE00F3068030F70677087302031DF82F760884
:103FDE007202031DF82F75087102031DF82F740865
:103FEE0070020318FB2FFC2FFE2F0310FF2F03145C
:023FFE000800B9
:04400E00F4ECFFFFD0
:00000001FF
